S01A0000547261666669634C6967687453797374656D2E73726563CE
S11300000C942A000C943C000C943C000C943C008E
S11300100C94AF000C943C000C943C000C948800AD
S11300200C943C000C943C000C944E000C943C004A
S11300300C943C000C943C000C943C000C943C004C
S11300400C943C000C943C000C943C000C943C003C
S11300500C943C0011241FBECFE5D8E0DEBFCDBF19
S113006020E0A0E6B0E001C01D92A636B207E1F799
S11300700E9442000C94D6000C94000088B3809532
S113008088BB08958FEF87BB88BB4EE350E067E9D8
S113009078E985E00E9475007894FFCF1F920F9253
S11300A00FB60F9211242F933F934F935F936F9347
S11300B07F938F939F93AF93BF93EF93FF93E091BD
S11300C06000F09161000995FF91EF91BF91AF91AC
S11300D09F918F917F916F915F914F913F912F915C
S11300E00F900FBE0F901F90189599B79F7E99BFE0
S11300F050936500409364007BBD6ABD1FBC88605B
S11301008EBD1DBC1CBC89B7806189BF80E0089589
S11301101F920F920FB60F9211242F933F934F9378
S11301205F936F937F938F939F93AF93BF93EF935B
S1130130FF93E0916400F09165000995FF91EF91C0
S1130140BF91AF919F918F917F916F915F914F91EB
S11301503F912F910F900FBE0F901F9018951F92F3
S11301600F920FB60F9211242F933F934F935F93E7
S11301706F937F938F939F93AF93BF93EF93FF936B
S1130180E0916200F09163000995FF91EF91BF91B6
S1130190AF919F918F917F916F915F914F913F911B
S11301A02F910F900FBE0F901F901895F894FFCFCA
S9030000FC
